{
  "_format": "hh-sol-artifact-1",
  "contractName": "HandleGeneration",
  "sourceName": "@inco/lightning/src/lightning-parts/primitives/HandleGeneration.sol",
  "abi": [
    {
      "inputs": [
        {
          "internalType": "bytes",
          "name": "ciphertext",
          "type": "bytes"
        },
        {
          "internalType": "address",
          "name": "user",
          "type": "address"
        },
        {
          "internalType": "address",
          "name": "contractAddress",
          "type": "address"
        },
        {
          "internalType": "enum ETypes",
          "name": "inputType",
          "type": "uint8"
        }
      ],
      "name": "getInputHandle",
      "outputs": [
        {
          "internalType": "bytes32",
          "name": "generatedHandle",
          "type": "bytes32"
        }
      ],
      "stateMutability": "view",
      "type": "function"
    },
    {
      "inputs": [
        {
          "internalType": "enum EOps",
          "name": "op",
          "type": "uint8"
        },
        {
          "internalType": "enum ETypes",
          "name": "returnType",
          "type": "uint8"
        },
        {
          "internalType": "bytes32",
          "name": "value",
          "type": "bytes32"
        }
      ],
      "name": "getOpResultHandle",
      "outputs": [
        {
          "internalType": "bytes32",
          "name": "generatedHandle",
          "type": "bytes32"
        }
      ],
      "stateMutability": "pure",
      "type": "function"
    },
    {
      "inputs": [
        {
          "internalType": "enum EOps",
          "name": "op",
          "type": "uint8"
        },
        {
          "internalType": "enum ETypes",
          "name": "returnType",
          "type": "uint8"
        },
        {
          "internalType": "bytes32",
          "name": "inputA",
          "type": "bytes32"
        },
        {
          "internalType": "bytes32",
          "name": "inputB",
          "type": "bytes32"
        },
        {
          "internalType": "bytes32",
          "name": "inputC",
          "type": "bytes32"
        }
      ],
      "name": "getOpResultHandle",
      "outputs": [
        {
          "internalType": "bytes32",
          "name": "generatedHandle",
          "type": "bytes32"
        }
      ],
      "stateMutability": "pure",
      "type": "function"
    },
    {
      "inputs": [
        {
          "internalType": "enum EOps",
          "name": "op",
          "type": "uint8"
        },
        {
          "internalType": "enum ETypes",
          "name": "returnType",
          "type": "uint8"
        },
        {
          "internalType": "uint256",
          "name": "counter",
          "type": "uint256"
        },
        {
          "internalType": "bytes32",
          "name": "upperBound",
          "type": "bytes32"
        }
      ],
      "name": "getOpResultHandle",
      "outputs": [
        {
          "internalType": "bytes32",
          "name": "generatedHandle",
          "type": "bytes32"
        }
      ],
      "stateMutability": "pure",
      "type": "function"
    },
    {
      "inputs": [
        {
          "internalType": "enum EOps",
          "name": "op",
          "type": "uint8"
        },
        {
          "internalType": "enum ETypes",
          "name": "returnType",
          "type": "uint8"
        },
        {
          "internalType": "bytes32",
          "name": "lhs",
          "type": "bytes32"
        },
        {
          "internalType": "bytes32",
          "name": "rhs",
          "type": "bytes32"
        }
      ],
      "name": "getOpResultHandle",
      "outputs": [
        {
          "internalType": "bytes32",
          "name": "generatedHandle",
          "type": "bytes32"
        }
      ],
      "stateMutability": "pure",
      "type": "function"
    },
    {
      "inputs": [
        {
          "internalType": "bytes32",
          "name": "plaintextBytes",
          "type": "bytes32"
        },
        {
          "internalType": "enum ETypes",
          "name": "handleType",
          "type": "uint8"
        }
      ],
      "name": "getTrivialEncryptHandle",
      "outputs": [
        {
          "internalType": "bytes32",
          "name": "generatedHandle",
          "type": "bytes32"
        }
      ],
      "stateMutability": "view",
      "type": "function"
    }
  ],
  "bytecode": "0x6080604052348015600e575f5ffd5b506106798061001c5f395ff3fe608060405234801561000f575f5ffd5b5060043610610060575f3560e01c806364750c4714610064578063a8c3dc9e14610089578063b5738c251461009c578063c3d3bf9c146100af578063d562de54146100c2578063f9d75ac9146100c2575b5f5ffd5b6100776100723660046102fb565b6100d5565b60405190815260200160405180910390f35b610077610097366004610335565b610110565b6100776100aa36600461035f565b610172565b6100776100bd3660046103d2565b6101b3565b6100776100d03660046104b6565b61025e565b5f61010884836040516020016100ec929190610520565b604051602081830303815290604052805190602001208461029c565b949350505050565b5f6040518060400160405280600481526020016365766d2f60e01b81525046601885853060405160200161014996959493929190610551565b60405160208183030381529060405280519060200120905061016b81836102a3565b9392505050565b5f6101a98685858560405160200161018d94939291906105b1565b604051602081830303815290604052805190602001208661029c565b9695505050505050565b5f5f85805190602001205f6040516020016101d8929190918252602082015260400190565b6040516020818303038152906040528051906020012090505f6101fb82856102c6565b9050610253816040518060400160405280600481526020016365766d2f60e01b81525046308a8a604051602001610237969594939291906105d8565b60405160208183030381529060405280519060200120856102c6565b979650505050505050565b5f61029385848460405160200161027793929190610624565b604051602081830303815290604052805190602001208561029c565b95945050505050565b5f61016b83835b61ffff198216600882600b8111156102bd576102bd6104f5565b901b1792915050565b62ff000019828116908161029381856102a3565b8035601e81106102e8575f5ffd5b919050565b8035600c81106102e8575f5ffd5b5f5f5f6060848603121561030d575f5ffd5b610316846102da565b9250610324602085016102ed565b929592945050506040919091013590565b5f5f60408385031215610346575f5ffd5b82359150610356602084016102ed565b90509250929050565b5f5f5f5f5f60a08688031215610373575f5ffd5b61037c866102da565b945061038a602087016102ed565b94979496505050506040830135926060810135926080909101359150565b634e487b7160e01b5f52604160045260245ffd5b80356001600160a01b03811681146102e8575f5ffd5b5f5f5f5f608085870312156103e5575f5ffd5b843567ffffffffffffffff8111156103fb575f5ffd5b8501601f8101871361040b575f5ffd5b803567ffffffffffffffff811115610425576104256103a8565b604051601f8201601f19908116603f0116810167ffffffffffffffff81118282101715610454576104546103a8565b60405281815282820160200189101561046b575f5ffd5b816020840160208301375f6020838301015280965050505061048f602086016103bc565b925061049d604086016103bc565b91506104ab606086016102ed565b905092959194509250565b5f5f5f5f608085870312156104c9575f5ffd5b6104d2856102da565b93506104e0602086016102ed565b93969395505050506040820135916060013590565b634e487b7160e01b5f52602160045260245ffd5b601e8110610519576105196104f5565b60f81b9052565b61052a8184610509565b6001810191909152602101919050565b5f81518060208401855e5f93019283525090919050565b5f61055c828961053a565b87815261056c6020820188610509565b856021820152600c8510610582576105826104f5565b60f89490941b6041850152505060601b6bffffffffffffffffffffffff19166042820152605601949350505050565b6105bb8186610509565b600181019390935260218301919091526041820152606101919050565b8681525f6105e9602083018861053a565b95865250506bffffffffffffffffffffffff19606093841b8116602086015291831b8216603485015290911b166048820152605c0192915050565b61062e8185610509565b6001810192909252602182015260410191905056fea2646970667358221220348ce70fc1a2f5e6e95725cf0b7b8e002e199c524680fd42c31a565184fd20c564736f6c634300081c0033",
  "linkReferences": {},
  "deployedLinkReferences": {}
}