{
  "_format": "hh-sol-artifact-1",
  "contractName": "SignatureVerifier",
  "sourceName": "@inco/lightning/src/lightning-parts/primitives/SignatureVerifier.sol",
  "abi": [
    {
      "inputs": [],
      "name": "ECDSAInvalidSignature",
      "type": "error"
    },
    {
      "inputs": [
        {
          "internalType": "uint256",
          "name": "length",
          "type": "uint256"
        }
      ],
      "name": "ECDSAInvalidSignatureLength",
      "type": "error"
    },
    {
      "inputs": [
        {
          "internalType": "bytes32",
          "name": "s",
          "type": "bytes32"
        }
      ],
      "name": "ECDSAInvalidSignatureS",
      "type": "error"
    },
    {
      "inputs": [],
      "name": "InvalidInitialization",
      "type": "error"
    },
    {
      "inputs": [],
      "name": "NotInitializing",
      "type": "error"
    },
    {
      "inputs": [
        {
          "internalType": "address",
          "name": "owner",
          "type": "address"
        }
      ],
      "name": "OwnableInvalidOwner",
      "type": "error"
    },
    {
      "inputs": [
        {
          "internalType": "address",
          "name": "account",
          "type": "address"
        }
      ],
      "name": "OwnableUnauthorizedAccount",
      "type": "error"
    },
    {
      "inputs": [
        {
          "internalType": "address",
          "name": "signerAddress",
          "type": "address"
        }
      ],
      "name": "SignerNotFound",
      "type": "error"
    },
    {
      "anonymous": false,
      "inputs": [
        {
          "indexed": false,
          "internalType": "address",
          "name": "signerAddress",
          "type": "address"
        }
      ],
      "name": "AddedSignatureVerifier",
      "type": "event"
    },
    {
      "anonymous": false,
      "inputs": [
        {
          "indexed": false,
          "internalType": "uint64",
          "name": "version",
          "type": "uint64"
        }
      ],
      "name": "Initialized",
      "type": "event"
    },
    {
      "anonymous": false,
      "inputs": [
        {
          "indexed": true,
          "internalType": "address",
          "name": "previousOwner",
          "type": "address"
        },
        {
          "indexed": true,
          "internalType": "address",
          "name": "newOwner",
          "type": "address"
        }
      ],
      "name": "OwnershipTransferred",
      "type": "event"
    },
    {
      "anonymous": false,
      "inputs": [
        {
          "indexed": false,
          "internalType": "address",
          "name": "signerAddress",
          "type": "address"
        }
      ],
      "name": "RemovedSignatureVerifier",
      "type": "event"
    },
    {
      "inputs": [
        {
          "internalType": "address",
          "name": "signerAddress",
          "type": "address"
        }
      ],
      "name": "addSigner",
      "outputs": [],
      "stateMutability": "nonpayable",
      "type": "function"
    },
    {
      "inputs": [
        {
          "internalType": "address",
          "name": "signerAddress",
          "type": "address"
        }
      ],
      "name": "isSigner",
      "outputs": [
        {
          "internalType": "bool",
          "name": "",
          "type": "bool"
        }
      ],
      "stateMutability": "view",
      "type": "function"
    },
    {
      "inputs": [
        {
          "internalType": "bytes32",
          "name": "hash",
          "type": "bytes32"
        },
        {
          "internalType": "bytes",
          "name": "signature",
          "type": "bytes"
        }
      ],
      "name": "isValidSignature",
      "outputs": [
        {
          "internalType": "bool",
          "name": "",
          "type": "bool"
        }
      ],
      "stateMutability": "view",
      "type": "function"
    },
    {
      "inputs": [],
      "name": "owner",
      "outputs": [
        {
          "internalType": "address",
          "name": "",
          "type": "address"
        }
      ],
      "stateMutability": "view",
      "type": "function"
    },
    {
      "inputs": [
        {
          "internalType": "address",
          "name": "signerAddress",
          "type": "address"
        }
      ],
      "name": "removeSigner",
      "outputs": [],
      "stateMutability": "nonpayable",
      "type": "function"
    },
    {
      "inputs": [],
      "name": "renounceOwnership",
      "outputs": [],
      "stateMutability": "nonpayable",
      "type": "function"
    },
    {
      "inputs": [
        {
          "internalType": "address",
          "name": "newOwner",
          "type": "address"
        }
      ],
      "name": "transferOwnership",
      "outputs": [],
      "stateMutability": "nonpayable",
      "type": "function"
    }
  ],
  "bytecode": "0x6080604052348015600e575f5ffd5b506106f58061001c5f395ff3fe608060405234801561000f575f5ffd5b506004361061007a575f3560e01c80637df73e27116100585780637df73e27146100c35780638da5cb5b146100fa578063eb12d61e14610134578063f2fde38b14610147575f5ffd5b80630e316ab71461007e5780631626ba7e14610093578063715018a6146100bb575b5f5ffd5b61009161008c36600461058d565b61015a565b005b6100a66100a13660046105ce565b610226565b60405190151581526020015b60405180910390f35b610091610260565b6100a66100d136600461058d565b6001600160a01b03165f9081525f5160206106a05f395f51905f52602052604090205460ff1690565b7f9016d09d72d40fdae2fd8ceac6b6234c7706214fd39c1cd1e609a0528c199300546040516001600160a01b0390911681526020016100b2565b61009161014236600461058d565b610273565b61009161015536600461058d565b610290565b6101626102cd565b6001600160a01b0381165f9081525f5160206106a05f395f51905f526020526040902054819060ff166101b9576040516353b1def160e01b81526001600160a01b0390911660048201526024015b60405180910390fd5b505f5f5160206106a05f395f51905f525b6001600160a01b0383165f8181526020928352604090819020805460ff19169415159490941790935591519182527f645ef173e40ba93027e7d1b3a236b3babbf646e82770603ddc29eb9d7d97f8c4910160405180910390a150565b5f806102328484610328565b6001600160a01b03165f9081525f5160206106a05f395f51905f52602052604090205460ff16949350505050565b6102686102cd565b6102715f610350565b565b61027b6102cd565b60015f5160206106a05f395f51905f526101ca565b6102986102cd565b6001600160a01b0381166102c157604051631e4fbdf760e01b81525f60048201526024016101b0565b6102ca81610350565b50565b336102ff7f9016d09d72d40fdae2fd8ceac6b6234c7706214fd39c1cd1e609a0528c199300546001600160a01b031690565b6001600160a01b0316146102715760405163118cdaa760e01b81523360048201526024016101b0565b5f5f5f5f61033686866103c0565b9250925092506103468282610409565b5090949350505050565b7f9016d09d72d40fdae2fd8ceac6b6234c7706214fd39c1cd1e609a0528c19930080546001600160a01b031981166001600160a01b03848116918217845560405192169182907f8be0079c531659141344cd1fd0a4f28419497f9722a3daafe3b4186f6b6457e0905f90a3505050565b5f5f5f83516041036103f7576020840151604085015160608601515f1a6103e9888285856104c5565b955095509550505050610402565b505081515f91506002905b9250925092565b5f82600381111561041c5761041c61068b565b03610425575050565b60018260038111156104395761043961068b565b036104575760405163f645eedf60e01b815260040160405180910390fd5b600282600381111561046b5761046b61068b565b0361048c5760405163fce698f760e01b8152600481018290526024016101b0565b60038260038111156104a0576104a061068b565b036104c1576040516335e2f38360e21b8152600481018290526024016101b0565b5050565b5f80807f7fffffffffffffffffffffffffffffff5d576e7357a4501ddfe92f46681b20a08411156104fe57505f91506003905082610583565b604080515f808252602082018084528a905260ff891692820192909252606081018790526080810186905260019060a0016020604051602081039080840390855afa15801561054f573d5f5f3e3d5ffd5b5050604051601f1901519150506001600160a01b03811661057a57505f925060019150829050610583565b92505f91508190505b9450945094915050565b5f6020828403121561059d575f5ffd5b81356001600160a01b03811681146105b3575f5ffd5b9392505050565b634e487b7160e01b5f52604160045260245ffd5b5f5f604083850312156105df575f5ffd5b82359150602083013567ffffffffffffffff8111156105fc575f5ffd5b8301601f8101851361060c575f5ffd5b803567ffffffffffffffff811115610626576106266105ba565b604051601f8201601f19908116603f0116810167ffffffffffffffff81118282101715610655576106556105ba565b60405281815282820160200187101561066c575f5ffd5b816020840160208301375f602083830101528093505050509250929050565b634e487b7160e01b5f52602160045260245ffdfe7e7fa3ad5157daa7a986f67856bf5f1c94ab15ad6d561f715cd5fb220d3af6eca26469706673582212209f4f4a31a006ddfc7e6c6010d6be17f7683cf47e6f725eeffef08e1eccfaf88864736f6c634300081c0033",
  "linkReferences": {},
  "deployedLinkReferences": {}
}